:020000020000FC
:0200000024C01A
:0200100068C0C6
:1000400033C00FEF0DBF08E00EBFF89400E8009337
:10005000610004E0009361000E944F000FEF04B9BB
:1000600000E005B90FEF0AB900E00BB900E007B9ED
:100070000FEF08B902E00093680003E000936C0002
:1000800000E00093C10001E000936E0010E020E06A
:1000900030E0F0E0E0EF24912BB97894FFCF03E05B
:1000A00005BD04E606BD08953395343611F02BB92D
:1000B000189530E043954A3019F031962491F7CFE6
:1000C000F0E0E0EF249140E0F2CF1395103129F0F9
:1000D0000DC0103021F01A9509C010E007C01FE0D4
:1000E00005C056B150FFF1CF51FFF3CF15B91895A8
:1000F00077503B7A5C6E6F707F7E7D4F275B2F2D34
:00000001FF
