:020000020000FC
:1000000024C077503B7A5C6E6F707F7E7D4F275B9C
:020010002F2D92
:1000400029C00FEF0DBF08E00EBFF89400E8009341
:10005000610004E0009361000E9445000FEF04B9C5
:1000600002E005B90FEF0AB900E00BB900E0009318
:10007000C10001E000936E0010E020E030E0F0E00D
:10008000E2E024912BB97894FFCF03E005BD04E6AC
:1000900006BD08953395343609F0189543954A30D6
:1000A00021F0319624911BB9F8CFF0E0E2E02491E1
:0200B0002BB96A
:00000001FF
