:020000020000FC
:0200000024C01A
:1000400046C00FEF0DBF08E00EBFF89400E8009324
:10005000610004E00093610003E005BD04E606BD15
:100060000FEF0AB900E00BB90CE007B903EF08B9CC
:1000700000E00093C10001E000936E0002EC0093E9
:10008000B20003E00093B10020E030E060E071E0F6
:1000900000E0F0E0EEEE24912BB97894613069F045
:1000A00024912BB9439A42980E946F0027E72BB9FD
:1000B000429A43980E946F00F1CF672743954A30D8
:1000C00011F03196EBCF40E0F0E0EEEEE7CFA89AEA
:1000D0003395343609F0189530E06727FCCF07B325
:1000E00000FFFDCFB89A02EC0093B200089577505C
:0E00F0003B7A5C6E6F707F7E7D4F275B2F2DFD
:00000001FF
