:020000020000FC
:0200000024C01A
:100040003CC00FEF0DBF08E00EBFF89400E800932E
:10005000610004E0009361000E9458000FEF0AB9AC
:1000600000E00BB90CE007B901E108B900E000932A
:10007000C10001E000936E0020E030E0F0E0E0EF2E
:1000800024912BB9B0E0A0EF789424912BB9439A36
:1000900042980E9473008E2F9F2FEA2FFB2F2491EE
:1000A0002BB94398429AE82FF92F0E947300EDCFA5
:1000B00003E005BD04E606BD08953395343609F026
:1000C000189530E043954A3011F03196F9CFF0E0C1
:1000D000E0EF40E06395663011F01196F1CFB0E0AB
:1000E000A0EF60E0EDCF7AE07A957030E9F70895FF
:1000F00077503B7A5C6E6F707F7E7D4F275B2F2D34
:00000001FF
