:020000020000FC
:0200000024C01A
:1000400044C00FEF0DBF08E00EBFF89400E8009326
:10005000610004E0009361000E9460000FEF0AB9A4
:1000600000E00BB90CE007B903EF08B900E000931A
:10007000C10001E000936E0020E030E000E0F1E01C
:10008000ECE024912BB9B1E0ACE002E00093B000C9
:1000900004E00093B10003EC0093B3007894249142
:1000A0002BB9439A42988E2F9F2FEA2FFB2F249132
:1000B0002BB94398429AE82FF92F0E948200EFCF84
:1000C00003E005BD04E606BD08950F930FB70F9337
:1000D000A89A3395343621F00F910FBF0F911895E0
:1000E00030E043954A3011F03196F6CFF1E0ECE084
:1000F00040E05395563011F01196EECFB1E0ACE0F0
:1001000050E0EACFB99BFECFB99A089577503B7A79
:0C0110005C6E6F707F7E7D4F275B2F2D93
:00000001FF
