:020000020000FC
:0200000024C01A
:1000400052C00FEF0DBF08E00EBFF89400E8009318
:10005000610004E00093610003E005BD04E606BD15
:100060000FEF0AB900E00BB90CE007B903EF08B9CC
:1000700000E00093C10001E000936E0002EC0093E9
:10008000B20003E00093B10020E030E060E000E067
:1000900040E0F1E0E6E024912BB9B1E0A6E07894ED
:1000A000613079F020812BB9439A42980E947B00FD
:1000B0002C912BB942984398429A43980E947B0016
:1000C000EFCF60E043954A3011F03196E9CF40E040
:1000D000F1E0E6E05395563011F01196E1CF50E093
:1000E000B1E0A6E0DDCF04E606BD3395343611F469
:1000F00030E061E0189507B300FFFDCFB89A02EC3D
:100100000093B200089577503B7A5C6E6F707F7EEB
:060110007D4F275B2F2D3F
:00000001FF
