:020000020000FC
:0200000024C01A
:0200100081C0AD
:1000400047C00FEF0DBF08E00EBFF89400E8009323
:10005000610004E0009361000E9463000FEF04B9A7
:1000600000E005B90FEF0AB900E00BB90CE007B9E1
:1000700001E108B902E00093680003E000936C001E
:1000800000E00093C10001E000936E0010E020E06A
:1000900030E0F1E0ECE224912BB9B1E0ACE27894ED
:1000A00024912BB9439A42980E9491008E2F9F2F42
:1000B000EA2FFB2F24912BB94398429AE82FF92F6E
:1000C0000E949100EDCF03E005BD04E606BD089552
:1000D0003395343609F0189530E043954A3011F0E5
:1000E0003196F9CFF1E0ECE240E06395663011F033
:1000F0001196F1CFB1E0ACE260E0EDCF1395103195
:1001000029F00DC0103021F01A9509C010E007C089
:100110001FE005C056B150FFF1CF51FFF3CF15B925
:1001200018957AE07A957030E9F7089577503B7A20
:0C0130005C6E6F707F7E7D4F275B2F2D73
:00000001FF
