:020000020000FC
:0200000024C01A
:0200100092C09C
:100040005EC00FEF0DBF08E00EBFF89400E800930C
:10005000610004E0009361000FEF04B900E005B90E
:1000600002E00093680003E000936C0003E005BD2C
:1000700004E606BD0FEF0AB900E00BB90CE007B9C2
:1000800003EF08B900E00093C10001E000936E00A7
:1000900002EC0093B20003E00093B10020E030E0F6
:1000A00060E000E040E010E070E0F1E0E4E4249182
:1000B0002BB9B1E0A4E47894613079F020812BB9B8
:1000C000439A42980E9487002C912BB942984398FA
:1000D000429A43980E948700EFCF60E043954A30F0
:1000E00011F03196E9CF40E0F1E0E4E45395563069
:1000F00011F01196E1CF50E0B1E0A4E4DDCF04E6C9
:1001000006BD3395343611F430E061E0189507B33D
:1001100000FFFDCFB89A02EC0093B200089513954A
:10012000103129F00DC0103021F01A9509C010E0EF
:1001300007C01FE005C076B170FFF1CF71FFF3CFAC
:1001400015B9189577503B7A5C6E6F707F7E7D4F46
:04015000275B2F2DCD
:00000001FF
