:020000020000FC
:0200000024C01A
:1000400045C00FEF0DBF08E00EBFF89400E8009325
:10005000610004E00093610003E005BD04E606BD15
:100060000FEF0AB900E00BB90CE007B903EF08B9CC
:1000700000E00093C10001E000936E0002EC0093E9
:10008000B20003E00093B10020E030E060E071E0F6
:1000900000E0F0E0E0EF24912BB97894613061F05A
:1000A00024912BB9439A42980E946E0027E7429A06
:1000B00043980E946E00F2CF672743954A3011F0B3
:1000C0003196ECCF40E0F0E0E0EFE8CFA89A33952E
:1000D000343609F0189530E06727FCCF07B300FFEE
:1000E000FDCF02EC0093B20001E0009317000895E9
:1000F00077503B7A5C6E6F707F7E7D4F275B2F2D34
:00000001FF
