:020000020000FC
:0200000024C01A
:1000400042C00FEF0DBF08E00EBFF89400E8009328
:10005000610004E00093610003E005BD04E606BD15
:100060000FEF0AB900E00BB90CE007B903EF08B9CC
:1000700000E00093C10001E000936E0002EC0093E9
:10008000B20003E00093B10020E030E060E071E0F6
:1000900000E0F0E0EAEE24912BB97894613049F069
:1000A00024912BB9429A43980E946B00439A42983C
:1000B000F5CF672743954A3011F03196EFCF40E0F6
:1000C000F0E0EAEEEBCFA89A3395343609F01895B4
:1000D00030E06727FCCF07B300FFFDCF02EC0093B1
:1000E000B20001E000931700089577503B7A5C6EF0
:0A00F0006F707F7E7D4F275B2F2D80
:00000001FF
