:020000020000FC
:0200000024C01A
:1000400043C00FEF0DBF08E00EBFF89400E8009327
:10005000610004E00093610003E005BD04E606BD15
:100060000FEF0AB900E00BB90CE007B903EF08B9CC
:1000700000E00093C10001E000936E0020E030E05A
:1000800060E000E0F1E0E6E124912BB9B1E0A6E107
:1000900002EC0093B20003E00093B10078940E9458
:1000A000760024912BB9439A42980E946C008E2FBF
:1000B0009F2FEA2FFB2F24912BB94398429AE82FC8
:1000C000F92F0E946C00EBCFA89A3395343609F0D3
:1000D000189530E061E0FCCF07B300FFFDCF02ECE4
:1000E0000093B20001E000931700089560FD01C085
:1000F000089560E043954A3011F03196F9CF40E021
:10010000F1E0E6E15395563011F01196F1CF50E051
:10011000B1E0A6E1EDCF77503B7A5C6E6F707F7EE9
:060120007D4F275B2F2D2F
:00000001FF
