:020000020000FC
:0200000024C01A
:1000400048C00FEF0DBF08E00EBFF89400E8009322
:10005000610004E00093610003E005BD04E606BD15
:100060000FEF0AB900E00BB90CE007B903EF08B9CC
:1000700000E00093C10001E000936E0002EC0093E9
:10008000B20003E00093B10020E030E060E071E0F6
:1000900000E0F0E0E2EF24912BB9B0E0A2EF789419
:1000A000613069F024912BB9439A42980E94710003
:1000B00027E72BB9429A43980E947100F1CF672736
:1000C00043954A3011F03196EBCF40E0F0E0E2EF9B
:1000D000E7CFA89A3395343609F0189530E06727B2
:1000E000FCCF07B300FFFDCFB89A02EC0093B2003B
:1000F000089577503B7A5C6E6F707F7E7D4F275BF3
:020100002F2DA1
:00000001FF
